{
  "_format": "hh-sol-artifact-1",
  "contractName": "BookDatabase",
  "sourceName": "contracts/BookDatabase.sol",
  "abi": [
    {
      "inputs": [],
      "stateMutability": "nonpayable",
      "type": "constructor"
    },
    {
      "inputs": [
        {
          "components": [
            {
              "internalType": "string",
              "name": "title",
              "type": "string"
            },
            {
              "internalType": "uint16",
              "name": "year",
              "type": "uint16"
            }
          ],
          "internalType": "struct BookDatabase.Book",
          "name": "newBook",
          "type": "tuple"
        }
      ],
      "name": "addBook",
      "outputs": [],
      "stateMutability": "nonpayable",
      "type": "function"
    },
    {
      "inputs": [
        {
          "internalType": "uint32",
          "name": "",
          "type": "uint32"
        }
      ],
      "name": "books",
      "outputs": [
        {
          "internalType": "string",
          "name": "title",
          "type": "string"
        },
        {
          "internalType": "uint16",
          "name": "year",
          "type": "uint16"
        }
      ],
      "stateMutability": "view",
      "type": "function"
    },
    {
      "inputs": [],
      "name": "count",
      "outputs": [
        {
          "internalType": "uint256",
          "name": "",
          "type": "uint256"
        }
      ],
      "stateMutability": "view",
      "type": "function"
    },
    {
      "inputs": [
        {
          "internalType": "uint32",
          "name": "id",
          "type": "uint32"
        },
        {
          "components": [
            {
              "internalType": "string",
              "name": "title",
              "type": "string"
            },
            {
              "internalType": "uint16",
              "name": "year",
              "type": "uint16"
            }
          ],
          "internalType": "struct BookDatabase.Book",
          "name": "newBook",
          "type": "tuple"
        }
      ],
      "name": "editBook",
      "outputs": [],
      "stateMutability": "nonpayable",
      "type": "function"
    },
    {
      "inputs": [
        {
          "internalType": "uint32",
          "name": "id",
          "type": "uint32"
        }
      ],
      "name": "removeBook",
      "outputs": [],
      "stateMutability": "nonpayable",
      "type": "function"
    }
  ],
  "bytecode": "0x60a060405260008060006101000a81548163ffffffff021916908363ffffffff16021790555034801561003157600080fd5b503373ffffffffffffffffffffffffffffffffffffffff1660808173ffffffffffffffffffffffffffffffffffffffff1681525050608051610ef0610088600039600081816102a001526103ce0152610ef06000f3fe608060405234801561001057600080fd5b50600436106100575760003560e01c806306661abd1461005c57806368d748ca1461007a578063b19a4635146100ab578063e9e7ff0c146100c7578063feaeb5ab146100e3575b600080fd5b6100646100ff565b60405161007191906106b3565b60405180910390f35b610094600480360381019061008f919061071e565b610105565b6040516100a29291906107f8565b60405180910390f35b6100c560048036038101906100c091906109ff565b6101bf565b005b6100e160048036038101906100dc919061071e565b610287565b005b6100fd60048036038101906100f89190610a48565b6103b5565b005b60025481565b600160205280600052604060002060009150905080600001805461012890610ad3565b80601f016020809104026020016040519081016040528092919081815260200182805461015490610ad3565b80156101a15780601f10610176576101008083540402835291602001916101a1565b820191906000526020600020905b81548152906001019060200180831161018457829003601f168201915b5050505050908060010160009054906101000a900461ffff16905082565b60008081819054906101000a900463ffffffff16809291906101e090610b33565b91906101000a81548163ffffffff021916908363ffffffff1602179055505080600160008060009054906101000a900463ffffffff1663ffffffff1663ffffffff16815260200190815260200160002060008201518160000190816102459190610d0b565b5060208201518160010160006101000a81548161ffff021916908361ffff1602179055509050506002600081548092919061027f90610ddd565b919050555050565b3373ffffffffffffffffffffffffffffffffffffffff167f000000000000000000000000000000000000000000000000000000000000000073ffffffffffffffffffffffffffffffffffffffff1614610315576040517f08c379a000000000000000000000000000000000000000000000000000000000815260040161030c90610e71565b60405180910390fd5b6000600160008363ffffffff1663ffffffff16815260200190815260200160002060010160009054906101000a900461ffff1661ffff1611156103b257600160008263ffffffff1663ffffffff16815260200190815260200160002060008082016000610382919061063d565b6001820160006101000a81549061ffff02191690555050600260008154809291906103ac90610e91565b91905055505b50565b3373ffffffffffffffffffffffffffffffffffffffff167f000000000000000000000000000000000000000000000000000000000000000073ffffffffffffffffffffffffffffffffffffffff1614610443576040517f08c379a000000000000000000000000000000000000000000000000000000000815260040161043a90610e71565b60405180910390fd5b6000600160008463ffffffff1663ffffffff16815260200190815260200160002060405180604001604052908160008201805461047f90610ad3565b80601f01602080910402602001604051908101604052809291908181526020018280546104ab90610ad3565b80156104f85780601f106104cd576101008083540402835291602001916104f8565b820191906000526020600020905b8154815290600101906020018083116104db57829003601f168201915b505050505081526020016001820160009054906101000a900461ffff1661ffff1661ffff168152505090506105358160000151836000015161060a565b15801561055c575061055a82600001516040518060200160405280600081525061060a565b155b15610596578160000151600160008563ffffffff1663ffffffff16815260200190815260200160002060000190816105949190610d0b565b505b816020015161ffff16816020015161ffff16141580156105be57506000826020015161ffff16115b15610605578160200151600160008563ffffffff1663ffffffff16815260200190815260200160002060010160006101000a81548161ffff021916908361ffff1602179055505b505050565b600080839050600083905080518251148015610633575080805190602001208280519060200120145b9250505092915050565b50805461064990610ad3565b6000825580601f1061065b575061067a565b601f016020900490600052602060002090810190610679919061067d565b5b50565b5b8082111561069657600081600090555060010161067e565b5090565b6000819050919050565b6106ad8161069a565b82525050565b60006020820190506106c860008301846106a4565b92915050565b6000604051905090565b600080fd5b600080fd5b600063ffffffff82169050919050565b6106fb816106e2565b811461070657600080fd5b50565b600081359050610718816106f2565b92915050565b600060208284031215610734576107336106d8565b5b600061074284828501610709565b91505092915050565b600081519050919050565b600082825260208201905092915050565b60005b8381101561078557808201518184015260208101905061076a565b60008484015250505050565b6000601f19601f8301169050919050565b60006107ad8261074b565b6107b78185610756565b93506107c7818560208601610767565b6107d081610791565b840191505092915050565b600061ffff82169050919050565b6107f2816107db565b82525050565b6000604082019050818103600083015261081281856107a2565b905061082160208301846107e9565b9392505050565b600080fd5b7f4e487b7100000000000000000000000000000000000000000000000000000000600052604160045260246000fd5b61086582610791565b810181811067ffffffffffffffff821117156108845761088361082d565b5b80604052505050565b60006108976106ce565b90506108a3828261085c565b919050565b600080fd5b600080fd5b600080fd5b600067ffffffffffffffff8211156108d2576108d161082d565b5b6108db82610791565b9050602081019050919050565b82818337600083830152505050565b600061090a610905846108b7565b61088d565b905082815260208101848484011115610926576109256108b2565b5b6109318482856108e8565b509392505050565b600082601f83011261094e5761094d6108ad565b5b813561095e8482602086016108f7565b91505092915050565b610970816107db565b811461097b57600080fd5b50565b60008135905061098d81610967565b92915050565b6000604082840312156109a9576109a8610828565b5b6109b3604061088d565b9050600082013567ffffffffffffffff8111156109d3576109d26108a8565b5b6109df84828501610939565b60008301525060206109f38482850161097e565b60208301525092915050565b600060208284031215610a1557610a146106d8565b5b600082013567ffffffffffffffff811115610a3357610a326106dd565b5b610a3f84828501610993565b91505092915050565b60008060408385031215610a5f57610a5e6106d8565b5b6000610a6d85828601610709565b925050602083013567ffffffffffffffff811115610a8e57610a8d6106dd565b5b610a9a85828601610993565b9150509250929050565b7f4e487b7100000000000000000000000000000000000000000000000000000000600052602260045260246000fd5b60006002820490506001821680610aeb57607f821691505b602082108103610afe57610afd610aa4565b5b50919050565b7f4e487b7100000000000000000000000000000000000000000000000000000000600052601160045260246000fd5b6000610b3e826106e2565b915063ffffffff8203610b5457610b53610b04565b5b600182019050919050565b60008190508160005260206000209050919050565b60006020601f8301049050919050565b600082821b905092915050565b600060088302610bc17fffffffffffffffffffffffffffffffffffffffffffffffffffffffffffffffff82610b84565b610bcb8683610b84565b95508019841693508086168417925050509392505050565b6000819050919050565b6000610c08610c03610bfe8461069a565b610be3565b61069a565b9050919050565b6000819050919050565b610c2283610bed565b610c36610c2e82610c0f565b848454610b91565b825550505050565b600090565b610c4b610c3e565b610c56818484610c19565b505050565b5b81811015610c7a57610c6f600082610c43565b600181019050610c5c565b5050565b601f821115610cbf57610c9081610b5f565b610c9984610b74565b81016020851015610ca8578190505b610cbc610cb485610b74565b830182610c5b565b50505b505050565b600082821c905092915050565b6000610ce260001984600802610cc4565b1980831691505092915050565b6000610cfb8383610cd1565b9150826002028217905092915050565b610d148261074b565b67ffffffffffffffff811115610d2d57610d2c61082d565b5b610d378254610ad3565b610d42828285610c7e565b600060209050601f831160018114610d755760008415610d63578287015190505b610d6d8582610cef565b865550610dd5565b601f198416610d8386610b5f565b60005b82811015610dab57848901518255600182019150602085019450602081019050610d86565b86831015610dc85784890151610dc4601f891682610cd1565b8355505b6001600288020188555050505b505050505050565b6000610de88261069a565b91507fffffffffffffffffffffffffffffffffffffffffffffffffffffffffffffffff8203610e1a57610e19610b04565b5b600182019050919050565b7f596f7520646f6e742068617665207065726d697373696f6e0000000000000000600082015250565b6000610e5b601883610756565b9150610e6682610e25565b602082019050919050565b60006020820190508181036000830152610e8a81610e4e565b9050919050565b6000610e9c8261069a565b915060008203610eaf57610eae610b04565b5b60018203905091905056fea264697066735822122031557f4039ff946e7a7436aa6abf936c598647c33e270f66796195d1a5e28ca864736f6c63430008180033",
  "linkReferences": {},
  "deployedLinkReferences": {}
}